:100000000C94CB010C9403020C9403020C94030295
:100010000C9403020C9403020C9403020C9403024C
:100020000C9403020C94A6130C9403020C94030288
:100030000C9403020C9403020C9403020C9403022C
:100040000C9403020C9403020C9403020C9403021C
:100050000C944C140C9488140C9403020C9403021A
:100060000C943E070C9403020C9403020C940302BC
:100070000C9403020C9403020C9403020C940302EC
:100080000C9403020C9403020C940302084AD73B1D
:100090003BCE016E84BCBFFDC12F3D6C74319ABD57
:1000A00056833DDA3D00C77F11BED9E4BB4C3E917B
:1000B0006BAAAABE000000803F05A84CCDB2D44E6A
:1000C000B93836A9020C50B9918688083CA6AAAA6C
:1000D0002ABE000000803F23002573200066726561
:1000E000652F616C6C3A2535752F253575002534E3
:1000F00075204200737461636B3A002534752042A9
:1001000000686561703A006273732F646174613ACC
:100110002534752F25347520420053706565643D84
:1001200020253034640052433D252B346420252B98
:1001300034640054533D252B346420252B34640053
:10014000307825780020202020202020202020002A
:10015000626F745F616464723D00464154313620C1
:1001600020002530327800200020204D4D433A20D9
:10017000253475204D4279746520004D4D43206E25
:100180006F7420696E6974202825752900323A2021
:1001900049646C650064756D7020537461636B73A2
:1001A0003A20313A204D61696E004350553A25336B
:1001B00075252520554152543A25337525250001D2
:1001C000010000626F745F68775F7465737400008C
:1001D000000000000000000075696E7438206D6F2B
:1001E0006465000000000000000000000000000046
:1001F00000000000000000000000000000000000FF
:10020000000F1602010100626F745F736572766FF2
:1002100000000000000000000000000075696E741E
:100220003820736572766F2C2075696E7438207073
:100230006F730000000000000000000000000000DC
:100240000000000000BE19000000000000000000D7
:10025000000000000000000000000000000000009E
:10026000000000000000000000000000000000008E
:10027000000000000000000000000000000000007E
:10028000000000000000000000000041757377616D
:1002900065686C656E3A20506C61790053746172C8
:1002A000743A20506C6179007061722531752F2588
:1002B00031753A200020006F6B3A506C6179207CD8
:1002C000204B6F72723A53746F707000290025646E
:1002D000002C0020280020676573746172746574B7
:1002E0002E00416262727563683A2053746F7070B9
:1002F0000025630053595354454D2048414C544503
:10030000442E00765F633A2025336400765F6C3AB2
:100310002025336420765F723A2025336420200044
:10032000783A202533642020793A20253364202030
:100330000068656164696E673A202533642E25750F
:10034000202000493D2530345800523D253264209C
:1003500025326420463D2564204B3D256420543DD4
:1003600025642000423D2530335820253033582065
:100370004C3D2530335820253033582000503D2542
:10038000303358202530335820443D253033642005
:1003900025303364200011241FBECFEFD0E4DEBF30
:1003A000CDBF12B811B815B814B818B817B81BB823
:1003B0001AB884E980936400A89584B7877F84BFC6
:1003C000E0E6F0E0808188618083108284B78093CA
:1003D000F30314BE11E0A0E0B1E0E0EAF0E600E0D3
:1003E0000BBF02C007900D92A433B107D9F713E0F9
:1003F000A4E3B1E001C01D92A33FB107E1F70E9461
:10040000881E0C944E300C940000F999FECF92BDDA
:1004100081BDF89A80B508959C01809134018A309D
:1004200079F0982F9F5F90933401E82FFF27E7FD25
:10043000F095EE0FFF1FEB5CFE4F31832083089594
:100440008FEF089590934A018093490140934B01A7
:1004500020934C01609366018CE491E090936801D5
:10046000809367010895AF92BF92CF92DF92FF927F
:100470000F931F93CF93DF93F82EC0916D01D0910E
:100480006E01E0914901F0914A01309709F4BCC036
:1004900020E1C533D207C9F030E1C633D30720F4D9
:1004A000209709F4B1C01FC070E1C633D70759F0D7
:1004B00080E1C733D807B9F4809166018F5F8170FE
:1004C000809366019FC010924D01CDE4D1E0CE0132
:1004D000099510924A011092490185E1FE0111929D
:1004E0008A95E9F78FC06C2FCB3008F08BC08FB79F
:1004F000F8942091EB033091EC034091ED0350917F
:10050000EE038FBF8091620190916301A09164011D
:10051000B091650159016A01A81AB90ACA0ADB0A31
:10052000D601C501823376E1970770E0A70770E036
:10053000B70748F020936201309363014093640150
:10054000509365010DC08091690190916A01C817AF
:10055000D90731F480916B018F5F80936B010BC0E1
:100560008091670190916801019690936801809352
:10057000670110926B0180916B01853010F0109231
:100580006B0105E0609F8001112402C010926B0195
:1005900080916B01F801E80FF11DCF018050904070
:1005A0000E940502882391F390916601913071F4C5
:1005B000C4E001C0C150C8018C0F911D8050904013
:1005C0000E9405028823B1F3C0E0D0E0D0936A0115
:1005D000C09369019FB7F8942091EB033091EC032D
:1005E0004091ED035091EE039FBF20936201309341
:1005F00063014093640150936501E0916701F091BC
:1006000068018083C0E0D0E0D0936E01C0936D019B
:10061000209719F080E80E94320AEF2DF0E08091D7
:100620003401992787FD9095E817F90754F4EE0FE8
:10063000FF1FEB5CFE4F0190F081E02D309709F039
:1006400009958091490190914A01009709F45AC097
:1006500060914C0180914B0190E070E00E948B080A
:1006600000D000D089ED90E0EDB7FEB79283818392
:10067000CDE4D1E0D483C3830E94D0080990002048
:10068000E9F72197CD54D14000914C010C0F2FB7C1
:10069000F8948091EB039091EC03A091ED03B0915D
:1006A000EE032FBF209162013091630140916401FC
:1006B00050916501821B930BA40BB50B0F900F900B
:1006C0000F900F90823326E1920720E0A20720E0EE
:1006D000B20708F00F5F80916601813059F4809174
:1006E0004B0190E0602F70E00E948B0887ED90E056
:1006F0000E941709602F615080914B0190E070E0DB
:100700000E948B0880916D0190916E01009731F0ED
:100710000E94F80510926E0110926D0180E80E940F
:100720002B0ADF91CF911F910F91FF90DF90CF9017
:10073000BF90AF9008958CED96E20E940C0287EC7A
:1007400097E10E940C028EEB97E20E940C028AED68
:1007500093E00E940C0286E29FE00E940C0282E974
:1007600090E10E940C028BE894E00E940C02089534
:10077000F999FECF80E796E092BD81BDF89A80B5E9
:100780000895CF9310926C010E94132DC82F8823D7
:1007900079F00E94B8038C1759F01FBA20E736E0B1
:1007A00032BD21BDC0BD0FB6F894FA9AF99A0FBEBA
:1007B000CF91089581E090E061E070E00E948B08A5
:1007C00080E591E00E94170980916D0190916E0182
:1007D0008F33910591F481EC93E061E041E02AE0F0
:1007E0000E94220285E491E00E94170981E0809333
:1007F0006C0110926E0110926D0180916C01882342
:10080000B9F40E94B80300D000D0EDB7FEB731961E
:1008100020E431E0ADB7BEB712963C932E9311970A
:10082000828313820E94D0080F900F900F900F9038
:1008300082E090E061E070E00E948B0800D000D080
:1008400000D0EDB7FEB7319683E391E0ADB7BEB708
:1008500012969C938E9311978091DB019091DC010D
:10086000938382838091DD019091DE01958384835F
:100870000E94D008EDB7FEB736960FB6F894FEBFCB
:100880000FBEEDBF83E090E061E070E00E948B0856
:1008900000D000D000D0EDB7FEB7319686E291E0EF
:1008A000ADB7BEB712969C938E93119780911D029F
:1008B00090911E029383828380911F029091200267
:1008C000958384830E94D008EDB7FEB736960FB6A5
:1008D000F894FEBF0FBEEDBF84E090E061E070E0F1
:1008E0000E948B0800D000D08AE191E0ADB7BEB77E
:1008F00012969C938E931197809147029091480293
:1009000014969C938E9313970E94D0080F900F908B
:100910000F900F9008958F929F92AF92BF92CF92B7
:10092000DF92EF92FF920F931F93CF93DF938DB6D9
:100930009EB684E391E020E0E22E21E0F22E5C01FD
:10094000AE18BF0804EF13E06801C81AD90A81E0A5
:1009500090E061E070E00E948B0800D000D000D0F1
:10096000EDB7FEB7319687E091E0ADB7BEB712960E
:100970009C938E931197D382C282B582A4820E94E7
:10098000D008EDB7FEB736960FB6F894FEBF0FBE8F
:10099000EDBF82E090E061E070E00E948B0881E0B2
:1009A00091E00E94170982E090E06FE070E00E9401
:1009B0008B08C091EF03D091F003C01BD10B00D086
:1009C00000D08BEF90E0ADB7BEB712969C938E939C
:1009D00011971496DC93CE9313970E94D0080F9032
:1009E0000F900F900F9083E090E061E070E00E9424
:1009F0008B0884EF90E00E94170983E090E06FE09D
:100A000070E00E948B080FEF10E40819190900D05C
:100A100000D08EEE90E0EDB7FEB792838183148311
:100A200003830E94D0080F900F900F900F9084E0E6
:100A300090E061E070E00E948B0820E031E42E1924
:100A40003F0900D000D000D0EDB7FEB731968DED54
:100A500090E0ADB7BEB712969C938E931197C901E3
:100A60008C199D098A199B098C1B9D0B801B910B6E
:100A700093838283358324830E94D008EDB7FEB729
:100A800036960FB6F894FEBF0FBEEDBFDF91CF9143
:100A90001F910F91FF90EF90DF90CF90BF90AF909C
:100AA0009F908F9008952091DB013091DC01820F9F
:100AB000931F9093DC018093DB0180579E4F43E0AE
:100AC0008132940720F03093DC012093DB01809188
:100AD000DB019091DC019C01215030402133310534
:100AE00018F482E390E006C0C1968133910530F49A
:100AF0008EEC9FEF9093DC018093DB018091DD0110
:100B00009091DE01680F791F7093DE016093DD0123
:100B100060577E4F23E06132720720F09093DE0130
:100B20008093DD018091DD019091DE019C012150D7
:100B300030402133310538F482E390E09093DE01B8
:100B40008093DD010895C1968133910530F48EECD8
:100B50009FEF9093DE018093DD010895813071F065
:100B6000813018F08330F9F414C01092DC01109237
:100B7000DB011092DE011092DD01089582E390E026
:100B80009093DC018093DB019093DE018093DD0183
:100B9000089586E990E09093DC018093DB019093C7
:100BA000DE018093DD0108951092DC011092DB01DB
:100BB0001092DE011092DD010E946E170E946C1BE4
:100BC00008958A3219F4809191018F5F8093910189
:100BD0002091910130E080913401992787FD909513
:100BE0002817390714F0109291010E947C0808958B
:100BF0000F9380916D0190916E0120E187309207F3
:100C000009F4E3C020E18830920708F042C020E1F7
:100C10008130920709F4CDC020E182309207D0F4F0
:100C20008A33910509F499C08B33910548F48033D8
:100C3000910509F49AC08133910509F0CDC093C0A4
:100C40008D33910509F48BC020E18030920709F0C3
:100C5000C3C0ADC020E18430920709F4B0C020E1E8
:100C60008530920758F420E18230920709F4A3C03E
:100C700020E18330920709F0AFC09FC020E18530AA
:100C8000920709F49EC020E18630920709F0A4C0C3
:100C90009AC020E18932920709F46BC020E18A32C0
:100CA0009207F0F420E18C309207D9F120E18D30E9
:100CB000920758F420E18830920709F488C020E1B7
:100CC0008930920709F088C084C020E18032920701
:100CD00009F461C020E18132920709F07DC060C053
:100CE00020E18433920709F44FC020E18533920755
:100CF00050F420E18B32920721F120E182339207F8
:100D000009F06AC03CC020E18833920781F120E1FC
:100D10008F33920749F020E18633920709F05CC0D7
:100D20002BC00E94D40558C080E090E060E070E0E5
:100D30000E94DF200E94D4050E944D260E94DE21E1
:100D40000CC081E76EE440E050E020E030E000E0DD
:100D50000E94271D0E94141C3FC080E001C081E05A
:100D60000E94E10539C082E0FBCF83E0F9CF8AE23F
:100D7000F7CF8AE090E005C086EF9FEF07C086EFCF
:100D80009FEF6AE070E004C08AE090E066EF7FEFDA
:100D90000E94530521C080E090E061E047E004C07C
:100DA00080E090E061E04EE00E94BE1915C080E056
:100DB00011C081E00FC082E00DC083E00BC084E071
:100DC00009C085E007C086E005C087E003C088E071
:100DD00001C089E00E94AE050F9108958FE691E071
:100DE0000E941C0A0097A1F09C012070387040916D
:100DF0000001509101012417350751F03093010192
:100E0000209300018F73907190936E0180936D0118
:100E1000089591B1282F2095922391B992B19223F0
:100E200092B980937E000895409102014F3F11F4E2
:100E300010929001909190019830F8F4292F30E0B1
:100E4000F901EE0FFF1FE20FF31FE858FE4F728308
:100E50006183877080839F5F909390014F3F69F417
:100E60001092020190E490937C0090917C00982B6A
:100E700090937C008FEC80937A0008951F920F92DC
:100E80000FB60F920BB60F9211242F933F934F93EF
:100E90005F938F939F93AF93BF93EF93FF93809153
:100EA0000201282F30E04091780050917900F9013B
:100EB000EE0FFF1FE20FF31FE858FE4FA181B28132
:100EC00011965C934E93128211828F5F8093020180
:100ED0008830C8F490E0FC01EE0FFF1FE80FF91F07
:100EE000E858FE4F81819281009769F080E48093F9
:100EF0007C0080917C009081892B80937C008FEC1A
:100F000080937A0005C010927A008FEF80930201DF
:100F1000FF91EF91BF91AF919F918F915F914F9111
:100F20003F912F910F900BBE0F900FBE0F901F900F
:100F30001895809102010895809140038C3030F023
:100F40000E94481C882311F40E94BA1D08950F9333
:100F50004091E4015091E5012091E6013091E701D3
:100F60008DE46EE400E00E94271D40912301509122
:100F70002401209125013091260189E46EE40E942C
:100F8000271D40911D0250911E0220911F02309199
:100F9000200285E46EE40E94271D409112025091C8
:100FA0001302209114023091150282E46EE40E9433
:100FB000271D40911602509117022091180230917E
:100FC00019028CE46EE40E94271D40910C0250919E
:100FD0000D0220910E0230910F0288E46EE40E940F
:100FE000271D409195018CE66EE450E020E030E052
:100FF0000E94271D40911A0284E56EE450E020E033
:1010000030E00E94271D40911B0284E46EE450E012
:1010100020E030E00E94271D40911C0285E66EE42E
:1010200050E020E030E00E94271D88E56EE440E0BB
:1010300050E020E030E00E94271D0F9108950E94AB
:101040003A1D0895EF92FF920F931F932FB7F894D4
:10105000E090EB03F090EC030091ED031091EE03B0
:101060002FBFBC0180E090E02DE730E040E050E091
:101070000E946C2B26E130E040E050E00E94BE2B45
:101080006FB7F8948091EB039091EC03A091ED037E
:10109000B091EE036FBF8E199F09A00BB10B8217A1
:1010A0009307A407B50760F31F910F91FF90EF908E
:1010B0000895CF93C82F62E044E00E9475138AEF31
:1010C0008A95F1F700C088B1887F88B9C13031F4C2
:1010D0008FEB97E10197F1F700C00000CF910895E1
:1010E00062E045E00E9475138AEF8A95F1F700C02F
:1010F00088B1887F88B908950F9381E00E945908CC
:1011000083E663E640E050E020E030E000E00E944B
:10111000271D0F910895CF93DF93C82FC150D62F6D
:10112000D150C13051F0C13028F0C23049F0C33045
:1011300071F409C0862F815808C0862F815405C0DC
:10114000862F8D5602C0862F8D520E945908D0934B
:101150009201C0939301DF91CF910895CF930E94A4
:101160006F1387B1876087B93D988CE090E00E944B
:101170002208C3E088E362E044E00E94751388B16E
:10118000887F88B985E090E00E942208C15091F7DD
:101190008EE00E94590881E00E945908CF9108957D
:1011A000CF92DF92EF92FF920F931F93DF93CF9333
:1011B000CDB7DEB765970FB6F894DEBF0FBECDBFD3
:1011C000FE01B096419151918E010F5F1F4FC801F2
:1011D00065E170E09F010E94662DF82E6801EF2CFA
:1011E000EC0C05C0F60181916F010E947008EC14AF
:1011F000C9F740919201209193018F2D840F809324
:10120000920183E664E450E030E00E947D1D8F2D62
:1012100065960FB6F894DEBF0FBECDBFCF91DF91BC
:101220001F910F91FF90EF90DF90CF900895CF9294
:10123000DF92EF92FF920F931F93DF93CF930F9262
:10124000CDB7DEB76C01982F092F1D2D02C00E946B
:101250007008F02EFC18F8010F5F1F4F84918983EE
:101260008823A9F720919201009193018F2D820F7D
:10127000809392011092110183E664E44EEF30E016
:1012800010E0EF2C0E94E31C0C2D1D2D6E01089424
:10129000C11CD11C04C0C60161E00E94C214F80147
:1012A0000F5F1F4FE491E983EE23A9F70E94851198
:1012B0008F2D0F90CF91DF911F910F91FF90EF90A5
:1012C000DF90CF90089580939401809568E00E940C
:1012D000A0130895CF93DF93C82FD0E0C07CD070C7
:1012E00090919401209711F0892B02C08095892359
:1012F00080939401809194010E946309209711F0DA
:101300005A9A5A98DF91CF910895CF93C82F809120
:101310009401C03411F48F7B01C08C2B8093940115
:10132000809194010E946309C07C11F05A9A5A98E6
:10133000CF910895529A0E946F1380E00E94630932
:1013400008958FEF91EEA4E081509040A040E1F726
:1013500000C000008DB79EB760E070E00E949D1154
:10136000089588E992E065E370E10E949D11089577
:10137000809136038823E1F7F8941092C1008FEF33
:101380000E942B0A8FEF0E946A0983B7817F8460D5
:1013900083BF83B7816083BF88950895EF920F93D1
:1013A000FC01302F3E5FDB018C9190E002C09595EF
:1013B00087954A95E2F741E080FD40E081818F3FCB
:1013C00011F08F5F818390818181941739F183308F
:1013D00070F15481552369F4413041F4281730F4F9
:1013E00081E090E093838283448316C0138212824B
:1013F00013C002508017E0F0381768F0842F90E097
:1014000022813381220F331F822B932B938382837C
:101410005F5F548301C0148211820AC0381740F400
:1014200084818E1521F48281938196838583148231
:1014300040830F91EF900895FC01258136818781CB
:10144000908596838583C90108958093950160E115
:101450000E94A013089580959091950189230E9480
:10146000250A089590919501892B0E94250A0895D7
:101470000E946F1380E00E94250A0895F999FECF1B
:1014800092BD81BDF89A80B508951FBA92BD81BD05
:1014900060BD0FB6F894FA9AF99A0FBE0895EF92CC
:1014A000FF920F931F93DF93CF9300D0CDB7DEB79A
:1014B0008C010F5F1F4F0E943E0A682F780108942D
:1014C000E11CF11CC8016A830E943E0A782FC70103
:1014D00079830E943E0A082FC70101960E943E0AA6
:1014E000982F6A817981802F0F900F90CF91DF9193
:1014F0001F910F91FF90EF9008952F923F924F927E
:101500005F926F927F928F929F92AF92BF92CF9293
:10151000DF92EF92FF920F931F93CF93DF937B01A4
:101520008C01EA0160E070E0CB010E94240DFE0115
:10153000EA53FE4FA080B180B50180E090E0AE019B
:101540000E94240D1DAECE01C6966AE571E00E9490
:10155000452D009709F05DC0CE84DF84CA0CDB1CEA
:101560003701480108946108710881089108488989
:1015700050E02E893F89429FC001439F900D529FAA
:10158000900D11248C0D9D1D29893A8955E0220F5B
:10159000331F5A95E1F721503E4F232F33272695CD
:1015A000820F931FA0E0B0E0A4019301281B390B28
:1015B0004A0B5B0BCA01B9012D8530E040E050E0D9
:1015C0000E94BE2B19012A0122E0A22EB12CA20CEE
:1015D000B31C6B2D77276C0D7D1D80E090E0AE0174
:1015E0000E94240DF501F070EE0FFF1FEC0FFD1FA0
:1015F000C080D180C401B301AE010E94240D38EF38
:10160000C3163FEFD30660F4C1010396C816D9068E
:1016100039F080E40E94320AEE24EA94FE2C87011D
:10162000B701C801DF91CF911F910F91FF90EF900B
:10163000DF90CF90BF90AF909F908F907F906F90F2
:101640005F904F903F902F9008952F923F924F922E
:101650005F926F927F928F929F92AF92BF92CF9242
:10166000DF92EF92FF920F931F93CF93DF931C01B2
:101670006B0149015A0169E0B694A7949794879445
:101680006A95D1F788E390E001C0CE01EC01249681
:101690000E944F0A7B018C01A6010E94240D882321
:1016A000A9F4C601B1010E94452D009759F4089490
:1016B000E11CF11C011D111DE114F10401051105CE
:1016C00049F467C080E0C036D807F9F6EE24FF245D
:1016D00087015FC0C801B70154C0C801B701A601A6
:1016E0000E94240D882321F080E40E94320A57C012
:1016F000C601B1010E94452D270138010894411C03
:10170000511C611C711C009709F041C0C8E3D0E076
:10171000CE010E944F0A611571058105910529F0DE
:10172000249680E0CC35D80799F7AF2CB02E812EC7
:10173000CE010E943E0A8E1521F0CE016E2D0E9430
:10174000450A2196CE010E943E0A8A1521F0CE015B
:101750006A2D0E94450A2196CE010E943E0A8B15F1
:1017600021F0CE016B2D0E94450A2196CE010E94E8
:101770003E0A881521F0CE01682D0E94450AC3015A
:10178000B201A6010E947D0A9B01AC010CC083013D
:101790007201E814F9040A051B0508F49ECF2FEF27
:1017A0003FEF4FEF5FEFB901CA01DF91CF911F917A
:1017B0000F91FF90EF90DF90CF90BF90AF909F90F0
:1017C0008F907F906F905F904F903F902F900895F3
:1017D000AF92BF92CF92DF92EF92FF920F931F933F
:1017E000CF93DF937B018C01EA0161507040804010
:1017F00090400E94240DFE01E050FF4FA080B18078
:10180000C280D38079E0D694C794B794A7947A9590
:10181000D1F7EC2FFD2F80E092E0DF019C011D92BB
:1018200021503040E1F7AE0CBF1CC01ED11E10C0CD
:10183000C801B701AE010E948A0C882321F080E420
:101840000E94320A0AC00894E11CF11C011D111DFE
:10185000EA14FB040C051D0558F3DF91CF911F918D
:101860000F91FF90EF90DF90CF90BF90AF900895D1
:10187000982F85B18F7797FB85F985B92F9A96FBBD
:1018800085F985B92F9A95FB85F985B92F9A94FB2F
:1018900085F985B92F9A93FB85F985B92F9A92FB23
:1018A00085F985B92F9A91FB85F985B92F9A90FB17
:1018B00085F985B92F9A2D9A089525B12F7725B9E5
:1018C000922F906833B195B925B936FB87F933B1BA
:1018D00095B925B936FB86F933B195B925B936FBEB
:1018E00085F933B195B925B936FB84F933B195B98A
:1018F00025B936FB83F933B195B925B936FB82F9A1
:1019000033B195B925B936FB81F933B195B936FBB9
:1019100080F90895DF92EF92FF920F93CF93DF93B8
:101920007B01082FEA0110921101809195018460DA
:10193000809395010E94250A0E942E0E882309F0AB
:1019400067C0EE0CFF1C001F88E50E94380C802F3A
:101950000E94380C8F2D0E94380C8E2D0E94380C5E
:1019600080E00E94380C8FEF0E94380CDD240E942A
:101970005D0C8F3F31F40E94851110921101DA94B1
:10198000B1F7DD2009F444C08EEF0E94380CA5B1F8
:10199000AF7722E0BB27999197FBA5F9A5B92F9ABC
:1019A00096FBA5F9A5B92F9A95FBA5F9A5B92F9A8C
:1019B00094FBA5F9A5B92F9A93FBA5F9A5B92F9A80
:1019C00092FBA5F9A5B92F9A91FBA5F9A5B92F9A74
:1019D00090FBA5F9A5B92F9AB39509F0DCCF2A950C
:1019E00009F0D9CF2D9A0E94380C0E94380CDD24C2
:1019F000CC270E945D0C8F3F49F00E948511109208
:101A00001101CA95B1F7DA9499F706C000E007C052
:101A100001E00093030103C002E00093030180E4AE
:101A20000E946A09809195018B7F809395010E94A5
:101A3000250A0E948511802F90E0DF91CF910F91B0
:101A4000FF90EF90DF900895EF92FF920F93CF9366
:101A5000DF937B01082FEA0110921101809195011B
:101A60008062809395010E94250A0E942E0E882391
:101A700009F064C0EE0CFF1C001F81E50E94380CC9
:101A8000802F0E94380C8F2D0E94380C8E2D0E94C2
:101A9000380C80E00E94380C8FEF0E94380C0FEF5A
:101AA000109211010E945D0C8E3F49F00E945D0C66
:101AB0008E3F29F00E9485110A9591F73BC045B1F0
:101AC0004F7745B9342F306822E08827A3B135B964
:101AD00045B9A6FB97F9A3B135B945B9A6FB96F967
:101AE000A3B135B945B9A6FB95F9A3B135B945B947
:101AF000A6FB94F9A3B135B945B9A6FB93F9A3B1F7
:101B000035B945B9A6FB92F9A3B135B945B9A6FBDC
:101B100091F9A3B135B945B9A6FB90F9999383958D
:101B200009F0D4CF2A9509F0D1CF35B90E945D0CC8
:101B30000E945D0C002311F000E003C001E000935F
:101B4000030180E40E946A09809195018F7D809352
:101B500095010E94250A0E948511802F90E0DF9157
:101B6000CF910F91FF90EF900895EF92FF920F9316
:101B70001F93DF93CF9300D000D000D0CDB7DEB756
:101B80001092110110920301279A2698259A80E459
:101B90000E94850980E40E946A0900E18FEF0E949B
:101BA000380C0150D8F7DE011196EBE0F1E086E049
:101BB00001900D928150E1F700E010E07E01089461
:101BC000E11CF11C13C083E0093E180769F480E4AE
:101BD0000E946A0981E08093030180E40E94320A36
:101BE0000E94851181E02DC00F5F1F4FC7010E9429
:101BF000460E813041F781E489838FEF8E8302E7BF
:101C000017E17E010894E11CF11C10C00150104046
:101C100069F480E40E946A0981E08093030180E412
:101C20000E94320A0E94851182E00BC0C7010E9407
:101C3000460E882359F780E40E942B0A0E948511E2
:101C400080E026960FB6F894DEBF0FBECDBFCF91D1
:101C5000DF911F910F91FF90EF9008958091030104
:101C6000882331F00E94B50D80910301882369F427
:101C700080E40E94850980E40E946A098FEF0E9437
:101C8000380C80E40E94850980E008951F93CF936B
:101C9000DF93EC010E942E0E882379F416E08991DF
:101CA0000E94380C1150D9F7CAEED3E00E945D0CA7
:101CB000219721F08F3FD1F301C08FEFDF91CF91BA
:101CC0001F910895BF92CF92DF92EF92FF920F93F0
:101CD0001F93DF93CF93CDB7DEB727970FB6F89456
:101CE000DEBF0FBECDBF8C01DE011196E5E0F1E055
:101CF00086E001900D928150E1F710921101CE0122
:101D000001960E94460E882331F081E08093030102
:101D10000E94851134C080E20E94320A0E9485111F
:101D2000BB24109211010E945D0C8F830E948511CB
:101D3000BA948F81BB2011F08E3F99F71092110158
:101D4000780180E1C82ED12CC00ED11E0E945D0CFE
:101D5000F70181937F01EC15FD05C1F70E945D0C31
:101D60000E945D0C80E40E946A0980E20E942B0AB6
:101D70000E948511BB2061F481E080930301C801BA
:101D800061E070E040E150E00E94572D81E001C029
:101D900080E027960FB6F894DEBF0FBECDBFCF917F
:101DA000DF911F910F91FF90EF90DF90CF90BF9048
:101DB0000895DF93CF93CDB7DEB760970FB6F89451
:101DC000DEBF0FBECDBFCE0101960E94620E8823FA
:101DD00079F5288530E0220F331F220F331F8985C4
:101DE0008295869586958370280F311D8F8190E0AE
:101DF00083709070982F8827990F990F280F391F9B
:101E00008B85881F8827881F9E819F70890F8E5F12
:101E10002F5F3F4F40E050E09A859370990F890FF4
:101E200004C0220F331F441F551F8A95D2F703C0E9
:101E300020E030E0A901B901CA0160960FB6F8941C
:101E4000DEBF0FBECDBFCF91DF910895DF92EF923D
:101E5000FF920F931F93DF93CF93CDB7DEB76097B9
:101E60000FB6F894DEBF0FBECDBF0E94B50D9091A6
:101E70000401891709F485C08093040181E090E092
:101E800061E070E00E948B08809104018823D1F00A
:101E90000E947C0800D000D0EDB7FEB731968BE7EA
:101EA00091E0ADB7BEB712969C938E931197809137
:101EB0000401828313820E94D0080F900F900F902C
:101EC0000F905FC00E94D90E00D000D000D029E64C
:101ED00031E0EDB7FEB732832183E4E19695879533
:101EE00077956795EA95D1F7ADB7BEB713966D9321
:101EF0007D938D939C9316970E94D008EDB7FEB703
:101F000036960FB6F894FEBF0FBEEDBF8E010F5F81
:101F10001F4FC8010E94620E83E090E061E070E014
:101F20000E948B08DD2462E6E62E61E0F62E09C0F1
:101F3000FD2DF83031F484E090E061E070E00E9423
:101F40008B08D0FC04C087E691E00E941709D801F5
:101F50008D918D0100D000D0EDB7FEB73196ADB7B1
:101F6000BEB71296FC92EE921197828313820E9462
:101F7000D008D3940F900F900F900F90BD2DB031DB
:101F8000B9F660960FB6F894DEBF0FBECDBFCF9105
:101F9000DF911F910F91FF90EF90DF9008953E9A8F
:101FA0003F9A239A16BC81E884BD8AB180638AB9BE
:101FB000109285001092840082EF809380008CE064
:101FC00080938100A8E8B0E08FEF91E011969C9398
:101FD0008E93EAE8F0E09183808310925802109289
:101FE0005702109256021092550211969C938E93AE
:101FF000918380838091EA038C7F8093EA03089524
:102000009091EA03882391F490FD02C0469A01C0A2
:10201000469820915702309158028FEF91E0821B31
:10202000930B9093890080938800089591FF02C0DC
:10203000479A01C0479820915502309156028FEF80
:1020400091E0821B930B90938B0080938A000895FC
:10205000813051F4662321F485B58A7F85BD0895CA
:1020600085B5856085BD67BD089580919701909184
:102070009801A0919901B0919A010196A11DB11DFD
:102080008093970190939801A0939901B0939A013E
:1020900080939B0190939C01A0939D01B0939E011E
:1020A00080939F019093A001A093A101B093A201FE
:1020B000DCCF9B01AC019FB7F89480911101109285
:1020C00011019FBF813011F082E029C060911101A0
:1020D000EAE9F2E021C0808191810097D9F0A085E2
:1020E000B1858C918823B1F482819381A481B581DB
:1020F000281739074A075B0768F08091AB01909178
:10210000AC01E817F90751F037832683BF010E941D
:10211000301204C06F5F3A966430E8F281E0809339
:10212000110108956F927F928F929F92AF92BF920A
:10213000CF92DF92EF92FF920F931F93CF93DF9393
:102140008FB7F8942091EB033091EC034091ED03AD
:102150005091EE038FBF8091970190919801A091CB
:102160009901B0919A01E090A701F090A801009127
:10217000A9011091AA0159016A01AE18BF08C00A4D
:10218000D10AE090A301F090A4010091A501109163
:10219000A6013C014D016E187F08800A910A209328
:1021A000A7013093A8014093A9015093AA018093FD
:1021B000A3019093A401A093A501B093A601C4012B
:1021C000B3010E94C62926E437E14DE55CE30E9495
:1021D000E12A0E949A2924E630E040E050E00E9483
:1021E0006C2BA60195010E94BE2BC4E6C21B609118
:1021F000960170E080E090E00E94C62923EA3BE06F
:102200004EE054E40E94E12A7B018C01C601B50135
:102210000E94C6299B01AC01C801B7010E942D296B
:102220000E949A29E62E1092960181E090E061E0EA
:1022300070E00E948B088C2F65E00E948B2BA82EEB
:10224000D82F10E004C08FEF0E9470081F5F1A158E
:10225000D0F304C080E10E947008DF5FD431D0F376
:1022600082E090E061E070E00E948B0800D000D036
:1022700000D0EDB7FEB731968AEA91E0ADB7BEB7B0
:1022800012969C938E931197C2831382E4821582D7
:102290000E94D0088DB79EB706960FB6F8949EBFE1
:1022A0000FBE8DBF83E090E061E070E00E948B087C
:1022B00085E991E00E94170984E090E066E070E013
:1022C0000E948B088DE891E00E94170980916D01B2
:1022D00090916E01A0E181309A0721F0B0E1823047
:1022E0009B0721F410926E0110926D01DF91CF9146
:1022F0001F910F91FF90EF90DF90CF90BF90AF9024
:102300009F908F907F906F9008959FB7F8948091E1
:10231000110121E0209311019FBF823069F42FB792
:10232000F8946091EB037091EC038091ED03909130
:10233000EE032FBF0E9459100895CF93DF931092A0
:10234000110140911101EAE9F2E031C020813181AF
:102350002115310551F529E932E031872087209197
:10236000AB013091AC012115310539F4F093AC018A
:10237000E093AB018083918314C0DC016C93EC018A
:102380002197788385E891E1ED0122978883ED011B
:10239000239798838FB7ED01249788835797B1834C
:1023A000A08381E08093110109C04F5F3A964430C9
:1023B00068F281E080931101E0E0F0E0CF01DF916D
:1023C000CF910895109211012FB7F8946091EB030B
:1023D0007091EC038091ED039091EE032FBFAB0160
:1023E000E091AB01F091AC0126813781421B530B88
:1023F0004933510518F07783668311C028E330E034
:10240000241B350B40E050E0260F371F481F591F93
:10241000228333834483558322E0209311013FB705
:10242000F8942091110141E0409311013FBF223007
:1024300011F40E9459100895E091AB01F091AC01A4
:10244000918780872FB7F8946091EB037091EC032C
:102450008091ED039091EE032FBF0E9459100895D3
:102460007093AC016093AB01DB01FC011FB6F894E3
:102470001F922F923F924F925F926F927F928F9214
:102480009F92AF92BF92CF92DF92EF92FF920F9303
:102490001F93CF93DF930DB701930EB700830D9178
:1024A0000DBF0C910EBFDF91CF911F910F91FF9047
:1024B000EF90DF90CF90BF90AF909F908F907F90E4
:1024C0006F905F904F903F902F901F901FBE1124F0
:1024D00008958FEF0E94090783E00E9463095698D0
:1024E00022982098289A2498539810921E021092AD
:1024F0001D021092200210921F020895CF93DF93C5
:102500008CE30E9485098FB7F894C091EB03D091BA
:10251000EC038FBF8091B1019091B2019E01281B05
:10252000390BC90131E08D31930770F080E063E22F
:1025300071E00E9414078091D80180FD05C081E000
:1025400065E271E00E94140782E066E172E00E9499
:10255000140783E068E172E00E94140784E06CE0F5
:1025600072E00E94140785E06EE072E00E9414079A
:1025700086E062E172E00E94140787E064E172E0A5
:102580000E94140789B18295869586958170809303
:102590001B0283B1817080931A0283B18695869560
:1025A000817080931C020E94FB238091B101909165
:1025B000B2019E01281B390BC90131E08D3193070F
:1025C00050F1D093B201C093B1010E9499078823C2
:1025D000E1F32091230130912401E0912701F09152
:1025E000280183E291E060E172E045E756E0099559
:1025F0000E9499078230E0F3209125013091260155
:10260000E0912701F091280185E291E061E172E01B
:1026100041E956E009950E9499078F3FE1F70E9432
:10262000A026DF91CF91089583B18295817090911A
:10263000B001891729F08093B0011092AE011CC03F
:102640008091AE018C3020F48F5F8093AE0114C076
:102650008C3091F48DE08093AE012091EA0380915B
:102660001D0290911E0220FD02C0019601C001973B
:1026700090931E0280931D0289B18695869586955A
:1026800081709091AF01891729F08093AF0110926A
:10269000AD0108958091AD018C3020F48F5F80935F
:1026A000AD0108958C30B1F48DE08093AD0120919F
:1026B000EA0380911F029091200221FD06C001963D
:1026C0009093200280931F02089501979093200217
:1026D00080931F02089588B1807E88B9089587B1DC
:1026E0008F6187B90E946B1308951F93DF93CF9377
:1026F00000D00F92CDB7DEB798B1907E98B918E0B0
:1027000028B1982F991F9927991F922B98B998B1A2
:10271000962B98B9880F4B836A8389830E946B1329
:1027200011504B816A818981112351F788B1842B23
:1027300088B90F900F900F90CF91DF911F9108955E
:1027400042E00E9475130E946B1308951F920F922E
:102750000FB60F920BB60F921124AF92BF92CF9289
:10276000DF92EF920F932F933F934F935F936F936B
:102770007F938F939F93AF93BF93CF93DF93EF9309
:10278000FF93A090EB03B090EC03C090ED03D090CA
:10279000EE030894A11CB11CC11CD11CA092EB0338
:1027A000B092EC03C092ED03D092EE03CDB7DEB74A
:1027B00085EE92E09EBF8DBF78948FE691E063E254
:1027C00070E041E02AEF0AE03EE0E32E0E94CE09ED
:1027D0000E941413F894DEBFCDBF8091B3019A2DEF
:1027E000981B963030F0A092B301C601B5010E944B
:1027F0005910FF91EF91DF91CF91BF91AF919F91D0
:102800008F917F916F915F914F913F912F910F9198
:10281000EF90DF90CF90BF90AF900F900BBE0F90D6
:102820000FBE0F901F9018951092B20082E0809317
:10283000B00084E08093B1008BE28093B300E0E7C6
:10284000F0E08081826080837894089580E493E052
:1028500066EE72E040E50E94911E86E393E06AE432
:1028600073E040E90E94911E8FB7F8941092C50062
:1028700090E19093C40098E99093C10096E0909302
:10288000C2009091C6009091C00097FDFACF92ECE3
:102890009093C0008FBF08951F920F920FB60F92B2
:1028A0000BB60F9211242F938F939F93EF93FF9367
:1028B0008091C6002091400390914103291721F493
:1028C00081E08093480318C0E0914403F0914503F0
:1028D000819380914703815021F480914103E81B4B
:1028E000F10980934703F0934503E09344038091FB
:1028F00040038F5F80934003FF91EF919F918F91F1
:102900002F910F900BBE0F900FBE0F901F90189538
:102910001F920F920FB60F920BB60F9211248F9346
:102920009F93EF93FF93809136038823D9F0E09132
:102930003803F0913903919180913C03815021F447
:1029400080913703E81BF109F0933903E0933803D2
:1029500080933C038091360381508093360390939B
:10296000C60005C08091C1008F7D8093C100FF919A
:10297000EF919F918F910F900BBE0F900FBE0F9014
:102980001F901895EF92FF921F93DF93CF930F92B2
:10299000CDB7DEB77C01462F413960F0142F169574
:1029A000C701612F49830E94C214E10EF11C4981C5
:1029B000411BF2CF20E930E0842F90E050913603A4
:1029C000F901E51BF109E817F907C4F386E393E081
:1029D000B7010E949D1E8091C10080628093C1005A
:1029E0000F90CF91DF911F91FF90EF900895FC0120
:1029F0002FB7F8946091EB037091EC038091ED0395
:102A00009091EE032FBF2091B4013091B501409118
:102A1000B6015091B701621773078407950720F03C
:102A2000CF0161E00E94561B08950F931F93CF932F
:102A3000DF93EC018B0167EF74E140E00E94FA1A2A
:102A40008D818E70D9F02FB7F8948091EB0390911F
:102A5000EC03A091ED03B091EE032FBF20E030E036
:102A6000080F191F2A1F3B1F0093B4011093B501D3
:102A70002093B6013093B70180E001C08FEFDF9162
:102A8000CF911F910F91089522EF33E230932801E7
:102A90002093270120911201213009F458C02130E0
:102AA00020F0223009F0BAC083C0209126012170A5
:102AB0008091BA018C7F909124019170990F822BA3
:102AC000892B2091160230911702232F330F330BDD
:102AD0002595422F4170440F440F837F20911802A7
:102AE00030911902232F330F330B2595922F9170BC
:102AF000990F990F990F842B892B20910D0221702A
:102B00002295207F8F7C90910F0291709295990F62
:102B1000907E822B892B2091120230911302232F59
:102B2000330F330B2595922F91709295990F990F32
:102B3000907C8F732091140230911502232F330F54
:102B4000330B2595279522272795892B2BC020917C
:102B50001F0221708091BA018C7F90911D029170AB
:102B6000990F822B892B20911A022170220F220F9C
:102B7000837F90911C029170990F990F990F822B6E
:102B8000892B90911B0291709295907F8F7E892B5B
:102B90008093BA0120917401309175012795222705
:102BA00027958F77822B8093BA010E94250A08957A
:102BB0002091B8013091B90141E02E35340748F435
:102BC00082E390E09093DD038093DC038EEC9FEF33
:102BD0000CC042E02C3B340768F48EEC9FEF9093DE
:102BE000DD038093DC0382E390E09093DB0380932A
:102BF000DA030BC01092DD031092DC031092DB03AA
:102C00001092DA0361E00E94561B8091B801909106
:102C1000B90101969093B9018093B801089560932A
:102C200012011092B9011092B80164E475E143E019
:102C30000E94FA1A0895CF92DF92EF92FF920F93BB
:102C40001F93CF93DF93D62F042FC52F2091BD0163
:102C5000222309F046C0623008F045C06AE976E1F7
:102C600040E00E94FA1AD09313012D2F30E084E443
:102C700090E0289FB001299F700D389F700D11249E
:102C8000FB01E154FE4F44914093C60160547E4FD6
:102C900085ED91E050E00E94312DD090C6018C2F3F
:102CA000C02FD82F85EDE82E81E0F82ECC2406EC3D
:102CB00011E010C0F70141917F01842F423008F4E8
:102CC00082E0081B1109C801BE0150E00E944E2D90
:102CD0002496C394CD1470F381E08093BD0180E00D
:102CE00003C08FEF01C08EEFDF91CF911F910F9145
:102CF000FF90EF90DF90CF900895CF93C091BB01EC
:102D0000C33098F4FC012081222379F00E94132D16
:102D1000EC2FF0E0EE0FFF1FEE0FFF1FE953FE4F09
:102D200091838083CF5FC093BB0181E08093BC011E
:102D3000CF910895EF92FF920F931F93DF93CF935C
:102D4000CDB7DEB765970FB6F894DEBF0FBECDBF27
:102D50007C018091BD01813021F0823009F05EC09C
:102D600035C020911301233028F01092BD01C70116
:102D700060E058C030E084E490E0289FF001299F93
:102D8000F00D389FF00D1124EF5FFD4FA591B49128
:102D90008091C601843018F01092BD0145C0409169
:102DA000C2015091C3016091C4017091C5010091AD
:102DB000BE011091BF012091C0013091C101C70136
:102DC000FD01099582E08093BD012EC02091130181
:102DD00030E084E490E0289FB001299F700D389F77
:102DE000700D11246D537E4F8E010F5F1F4FC80170
:102DF00045E150E00E94312DF7012581269527708D
:102E000083819481009739F482E764E4422F50E093
:102E100030E00E947D1D8FEF809313011092BD0161
:102E2000C70161E00E94561B65960FB6F894DEBF9D
:102E30000FBECDBFCF91DF911F910F91FF90EF900B
:102E40000895DF92EF92FF920F931F93CF93DF933A
:102E50008C01C0E0D0E034E4E32EF12CDC2ECE9DDA
:102E6000B001CF9D700DDE9D700D11246D537E4F0E
:102E7000C8010E94452D009731F02196C330D1053D
:102E800069F7DD24DA948D2DDF91CF911F910F9199
:102E9000FF90EF90DF9008950F931F93CF93DF93F0
:102EA000EC01CB018A010E942117682FCE01A801F5
:102EB0000E941B16DF91CF911F910F910895BC01C5
:102EC000DC010D900020E9F7AD01481B590B480FBC
:102ED000591F80E090E00E944C170895CF93DF9334
:102EE0008AE996E10E94681AEC010E949B1ACE01C1
:102EF0000E949A16DF91CF9108958F929F92AF9280
:102F0000BF92CF92DF92EF92FF920F93DF93CF9316
:102F1000CDB7DEB7C454D0400FB6F894DEBF0FBEB5
:102F2000CDBF4FEBA42E41E0B42ECC24DD244E01C6
:102F30000894811C911CC401B50144E450E00E9436
:102F4000312D82E765E4A601960104E474010E9434
:102F5000661D0894C11CD11C84E490E0A80EB91E23
:102F600093E0C916D10439F7CC5BDF4F0FB6F89464
:102F7000DEBF0FBECDBFCF91DF910F91FF90EF90DD
:102F8000DF90CF90BF90AF909F908F9008958F92D9
:102F90009F92AF92BF92CF92DF92EF92FF920F93E8
:102FA0001F93CF93DF9380916D0190916E0120E18B
:102FB00085339207E9F030E18633930741F0A0E1D1
:102FC00089329A0751F58091D30181500AC08091CE
:102FD000BD01823019F40E946E171BC08091D3018D
:102FE0008F5F8093D3011092BB011092BC0111C07E
:102FF00081E08093BC018091D3019091D401890F2D
:103000008093D401823018F082508093D4011092C2
:10301000D30110926E0110926D010E947C08809184
:10302000D30183306CF082E08093D3018091D4018E
:103030008F5F8093D401823088F01092D4010EC04B
:1030400087FF0CC01092D3018091D40181508093EE
:10305000D401823018F081E08093D4018091BC01CA
:10306000882321F48091BD01823019F4882483944F
:1030700002C0F3E08F2E99249394E4E4CE2ED12C59
:1030800071EFA72E72E0B72E8091BD01823019F446
:103090008091130107C08091D4018150890D823045
:1030A00008F08250E82EFF24EC9CE001ED9CD00D4E
:1030B000FC9CD00D1124C154DE4F092D10E0C80135
:1030C00061E070E00E948B088091D301992787FD11
:1030D000909501960817190711F48EE301C080E25C
:1030E00000D000D0EDB7FEB7B282A182992787FD4C
:1030F0009095948383830E94D0080F900F900F9037
:103100000F90EC9CC001ED9C900DFC9C900D112447
:1031100089539E4F0E9417099394891408F0B4CFE5
:1031200084E090E061E070E00E948B088091BD0136
:10313000823009F052C082EE92E00E94170983E0CB
:1031400090E061E070E00E948B0886ED92E00E94C2
:10315000170982E090E061E070E00E948B0883ED47
:1031600092E00E941709EE240EEC12E02FC0EE2030
:1031700021F081ED92E00E941709EE2DF0E0AA27E0
:10318000BB27AE1BBF0BAA0FBB1FAC53BE4F8D910D
:103190009C91119787FF07C03196EC0FFD1FE491BA
:1031A000E13009F49F6F00D000D0ADB7BEB71296E2
:1031B0001C930E93119714969C938E9313970E94D1
:1031C000D008E3940F900F900F900F908091C6015C
:1031D000E81668F28CEC92E0A1C0FE0104918091A7
:1031E000BB01801708F07DC09091BC01992309F4C0
:1031F00078C087EB92E00E94170982E090E061E0DE
:1032000070E00E948B086996E090BB0110E008C056
:10321000CE016CE270E00E943A2DEC0122961F5F15
:103220001E15B0F3CE010E941709CE016CE270E0CA
:103230000E943A2D009799F0F82FFC1BCF2F6F2F8B
:1032400070E06F5F7F4F82E090E00E948B0805C0C6
:1032500085EB92E00E941709CF5FC431C8F383E089
:1032600090E061E070E00E948B0800D000D000D0B8
:10327000EDB7FEB7319688EA92E0ADB7BEB71296C9
:103280009C938E9311978091BB0190E0019693835C
:103290008283048315820E94D008EDB7FEB736966C
:1032A0000FB6F894FEBF0FBEEDBF8091BC01813018
:1032B000B9F5E091BB01F0E0EE0FFF1FEE0FFF1F2D
:1032C000E953FE4F108211821282138282E08093B2
:1032D000BC018DE796E161E043E029E00E94220213
:1032E0001FC00817A9F48CE992E00E941709809189
:1032F000BC018130A9F41092BC011092BB0180E0A6
:1033000090E06091D40147EC51E00E941B1608C088
:103310008091BC01882321F48BE892E00E94170978
:10332000DF91CF911F910F91FF90EF90DF90CF90A1
:10333000BF90AF909F908F9008952091DA01222343
:1033400051F461E376E10E9415158823B1F481E020
:103350008093DA0108951092DA0161E00E94561B11
:103360008091D90160E00E94BA219091D901909595
:103370008091D80189238093D8010895CF93DF935A
:10338000C62FD42F473021F420911B02222381F035
:103390006DE979E141E00E94FA1A8091D8018C2B05
:1033A0008093D8018C2F6D2F0E94BA21C093D90130
:1033B000DF91CF9108958091DB019091DC01909392
:1033C000DD038093DC038091DD019091DE01909319
:1033D000DB038093DA030895EF92FF921F93DF934C
:1033E000CF930F92CDB7DEB7182F7B0188E090E026
:1033F00049830E94E02BFC014981009769F0128308
:1034000041708581807F17821682F182E08214826A
:103410001382842B82608583CF010F90CF91DF913F
:103420001F91FF90EF900895CF93DF93FC01A0913F
:10343000DF01B091E0010097F9F0109741F082812F
:1034400012969C911297981758F4B783A683F0931D
:10345000E001E093DF0110C09A81981738F0DE0197
:103460001696CD91DC9117972097B1F71796FC939C
:10347000EE931697D783C683DF91CF9108958EEF91
:103480006AE976E140E00E94EC190E94141A8DEF7F
:103490006DE979E140E00E94EC190E94141A88EC71
:1034A00067EF74E140E00E94EC190E94141A8AE070
:1034B00064E475E141E00E94EC190E94141A82E074
:1034C0006BED79E141E00E94EC190E94141A089515
:1034D000E091DF01F091E00108C0208131812817DF
:1034E000390729F00680F781E02D3097B1F7CF0139
:1034F0000895E091DF01F091E00106C092819817F4
:1035000029F00680F781E02D3097C1F7CF010895AB
:10351000FC01009729F085818E7F858314821382B8
:1035200008950E94681A009721F0FC01858181703E
:10353000089580E00895FF920F931F93CF93DF9338
:103540001091DF017091E001E12FF72F20E030E0D2
:1035500040C0458140FD07C035C06F5FA817B9075F
:1035600021F4DF012AC0DF0160E013960D90BC91C9
:10357000A02D109791F760E0F4CF4B815C814A1742
:103580005B0729F00E80DF81C02D2097B1F71396DD
:10359000FC90139714960C911497209759F4159654
:1035A0004C9115974E7F15964C93159714961C9237
:1035B0001E9213976150AF2DB02F662319F0C12FC3
:1035C000D72FE3CFE817F90709F49F010680F781A9
:1035D000E02D309709F0BDCF2115310529F0F90113
:1035E0008581817F87608583DF91CF911F910F91C6
:1035F000FF9008950F931F93DF93CF930F92CDB752
:10360000DEB78C01CB0149830E94681AFC01498115
:10361000009769F40115110509F441C0D801159608
:103620008C911597817F15968C93159738C0842FB0
:10363000817050E042705070559547954170A3815C
:10364000B481109791F0882341F40115110529F1F7
:10365000F8018581817F858320C015968C9115970F
:103660008160817F15968C9315970115110579F06E
:10367000D80115968C911597442319F4807F8460A6
:1036800003C0817F8860D80115968C93159785813A
:10369000816085831483038302C0E0E0F0E0CF0102
:1036A0000F90CF91DF911F910F910895FC018581BB
:1036B0008E7F8583A381B481109759F015968C91E4
:1036C000159781606770660F817F862B15968C93A6
:1036D0001597148213820895E091DF01F091E001C3
:1036E0000CC082818350863C28F485818E7F85833F
:1036F000148213820680F781E02D309791F70895A8
:103700000F931F93CF93DF930E94EE06C091DF01CA
:10371000D091E00108EE13E039C08D8180FF29C00F
:103720001093DD030093DC031093DB030093DA03B3
:10373000E881F981309719F0CE01099503C08D8198
:103740008E7F8D838091DC039091DD0323E0883EA2
:10375000920741F42091DA033091DB0343E0283EE5
:10376000340739F06091DA037091DB030E94DF20A7
:103770000FC08E819F81009731F488EE93E068EE50
:1037800073E00E94DF200E80DF81C02D209729F694
:10379000DF91CF911F910F910895FC01009729F4BB
:1037A0008091DF019091E0010895868197810895CD
:1037B0000E949C070E947E1208952FB7F894809172
:1037C000EB039091EC032FBF2091E2013091E301D4
:1037D000AC01421B530B9A0151E02D31350728F003
:1037E0009093E3018093E20106C080916D01909176
:1037F0006E010097B1F08091E101882331F0809152
:103800006D0190916E01009741F0809191010E94AD
:10381000330281E08093E10104C00E94A707109267
:10382000E1010E94E211089580E090E060E070E024
:103830000E94DF200E947C0881E090E061E070E05F
:103840000E948B0884EF92E00E9417090E94B80939
:103850000895F999FECF80E796E092BD81BDF89A70
:1038600080B50895CF93C82F0E94291C8C1759F05A
:103870001FBA20E736E032BD21BDC0BD0FB6F894B7
:10388000FA9AF99A0FBECF9108950E94291C0895C3
:10389000CF92DF92EF92FF920F931F93DF93CF931C
:1038A000CDB7DEB769970FB6F894DEBF0FBECDBFB8
:1038B000198280E493E08E010F5F1F4FB8014CE046
:1038C0000E94041FD82EF80150E001C05F5F581716
:1038D0001CF491919E33D1F7E52FFF27E7FDF0957A
:1038E0007E010894E11CF11CEE0DFF1D90819E33BA
:1038F00009F059C028E130E0251B31092C30310591
:1039000008F451C0452F481B445F14163CF58FB78F
:10391000F8940091EB031091EC038FBF8CE0C82E5C
:10392000C50E2FB7F8948091EB039091EC032FBF55
:10393000801B910B86359105B0F56D2D772767FDBE
:1039400070956E0D7F1D80E493E0598F0E94041FD7
:10395000D80E4C2D4D19598D14161CF3E52EFF244D
:10396000E7FCF0948E010F5F1F4F0E0D1F1DF80135
:1039700083858C33C1F4D284FD2DFF3F41F00E943A
:10398000451CD81621F0F8018181873561F4FE01CC
:103990003196AEEDB3E0EE0DFF1D8CE001900D927F
:1039A0008150E1F701C08FEF69960FB6F894DEBF42
:1039B0000FBECDBFCF91DF911F910F91FF90EF9080
:1039C000DF90CF900895CF92DF92EF920F931F93E5
:1039D000DF93CF930F92CDB7DEB7690180931701C4
:1039E0006F776093180149830E94451C80931F01E3
:1039F000498140932001E0921901D0921B01C092AD
:103A00001A0110931D0100931C01809122018093E3
:103A10001E018F5F8093220186E191E06CE00E949D
:103A2000C2140F90CF91DF911F910F91EF90DF9013
:103A3000CF900895EF920F931F93109211010E945F
:103A4000E31C0E9485111F910F91EF900895EF9252
:103A50000F931F93DA01F901E02E109211014EEF3E
:103A60009D018F010E94E31C0E9485111F910F91FF
:103A7000EF9008950F930E94451C80588F3718F4DB
:103A80008FEF0E94321C87E562E542E150E020E0C2
:103A900030E000E00E94271D0F910895CF92DF9241
:103AA000EF920F931F93CF93CE2D109211010E948E
:103AB000E31CC6016C2F0E94C2140E948511CF9195
:103AC0001F910F91EF90DF90CF900895CF92DF92EA
:103AD000EF92FF920F931F93FA01D901902F670184
:103AE0004EEF9F018D01E92E0E944E1D1F910F91F7
:103AF000FF90EF90DF90CF900895CF92DF92EF92FA
:103B0000FF920F931F93DF93CF930F92CDB7DEB742
:103B10007A01D90168010115110579F0F8010190C8
:103B20000020E9F79F0121503040201B310B2F3F2F
:103B3000310509F020F4522F03C050E001C05FEFBF
:103B4000109211014EEF97018D01E52E59830E94CD
:103B5000E31CC6015981652F0E94C2140E94851181
:103B60000F90CF91DF911F910F91FF90EF90DF9019
:103B7000CF900895EF92FF920F931F93DF93CF930F
:103B8000CDB7DEB7A1970FB6F894DEBF0FBECDBF9D
:103B90008091E7038E3F09F0ADC08091DF03873548
:103BA00059F1883530F48134E1F1823509F0A0C053
:103BB00007C0813709F499C0823709F099C047C01E
:103BC0002091E2033091E30380911401909115015B
:103BD00080709870AC01422B532B50937501409329
:103BE00074012115310509F485C080959095909355
:103BF0001501809314017EC087E562E540E050E046
:103C000020E030E000E00E94271D0E94451C8F3F0D
:103C100009F070C081E462E540E050E020E030E06F
:103C200013C08091E0038F778F3409F063C08091D7
:103C3000E2030E94321C4091E2035091E30381E4CD
:103C400063E520E030E000E00E94271D53C0809132
:103C5000E0038F7790E08C34910541F08F3491052B
:103C600041F08134910509F045C03CC00E947D17A8
:103C700041C08FB7F8940091EB031091EC038FBF14
:103C8000909140038091E103981760F42FB7F89466
:103C90008091EB039091EC032FBF801B910B853536
:103CA000910570F380E493E07E010894E11CF11C1F
:103CB000B7014091E1030E94041F2FB7F89480914F
:103CC000EB039091EC032FBF801B910B8535910581
:103CD00020F4C7010E945F170DC082E764E440E052
:103CE00050E0AFCF0E946E1705C00E94141C02C0A6
:103CF00080E001C081E0A1960FB6F894DEBF0FBE50
:103D0000CDBFCF91DF911F910F91FF90EF9008955C
:103D10000E94681F0E94D81B0E94801B0E94DD1B0E
:103D2000F9CFFC01108264837583628373834183BE
:103D3000478346831186108608950F931F93CF9370
:103D4000DF93FC01442309F45AC051818081952FEF
:103D5000981B892F9417C0F491E09087242F281B7B
:103D6000368182819381321718F4350F851B9109B2
:103D7000321B3683820F911D938382839FB7F89401
:103D80008081821B80839FBF262F372F848195815E
:103D90005781142F541708F4152F02E015C079919C
:103DA0007D936F5F6117D8F3612F70E0260F371F87
:103DB000860F971F511B19F45181851B91090150E2
:103DC00039F0642F611B162FE901DC0160E0EACFB6
:103DD0005783958384839FB7F8948081840F808371
:103DE0009FBF11862FB7F8946091EB037091EC039D
:103DF0008091ED039091EE032FBF0E945910DF9147
:103E0000CF911F910F910895EF92FF920F931F93FF
:103E1000DF93CF9300D00F92CDB7DEB77C01442360
:103E200009F44BC0FC0180818823B1F481E08187D3
:103E3000C701099649836A837B830E941C12E09123
:103E4000AB01F091AC0189E992E091878087F7019D
:103E500080817B816A814981841708F4482FF701AA
:103E6000228133818681942F841708F4982F52E0A1
:103E700016C00D9101931F5F1917D8F3E92FF0E0D9
:103E80002E0F3F1F6E0F7F1F891B21F4F7018181C9
:103E9000281B3109515039F0F42FF91B9F2FD901FC
:103EA000FB0110E0E9CFF7013383228386839FB7BC
:103EB000F8948081841B80839FBF842F0F900F9084
:103EC0000F90CF91DF911F910F91FF90EF90089588
:103ED0000E94A1090E9414140E9426140E941F0827
:103EE0000E94AE080E94380A0E94B7210E949A09D7
:103EF0000E94B50D0E9469120E943F1A2098289ACC
:103F00000E949B030E94B1090895EF92FF920F93C4
:103F10001F93CF93DF93EC01882777FD8095982F2F
:103F20000E94C8297B018C01BE01882777FD8095FE
:103F3000982F0E94C8299B01AC01C801B7010E94BB
:103F4000D3287B018C0160913302709134028091FF
:103F500035029091360225E33AEF4EE85CE30E9489
:103F6000E12A9B01AC01C801B7010E945F28162F0E
:103F7000D72FE82EC92F2BED3FE049E450E40E94F3
:103F8000D62A181674F4612F7D2F8E2D9C2F2BEDC1
:103F90003FE049EC50E40E945F28162FD72FE82E0F
:103FA000C92F612F7D2F8E2D9C2F2BED3FE049E4F3
:103FB00050EC0E94262987FF0EC0612F7D2F8E2D89
:103FC0009C2F2BED3FE049EC50E40E946028162F17
:103FD000D72FE82EC92F612F7D2F8E2D9C2FDF919B
:103FE000CF911F910F91FF90EF90089540912D0276
:103FF00050912E0260912F027091300246175707A0
:1040000099F02091370230913802461757071CF477
:10401000281B390B04C0AC01421B530B9A0137FF1C
:1040200005C028593E4F02C02FEF3FEFC901089548
:10403000AF92BF92CF92DF92EF92FF920F931F93B6
:10404000481B590B5A01CC24B7FCC094DC2C261B0E
:10405000370B442737FD4095542FCA01B9010E9400
:104060006C2B7B018C01C601B501A60195010E9454
:104070006C2BE60EF71E081F191FB701C8011F9110
:104080000F91FF90EF90DF90CF90BF90AF90089589
:104090002F923F924F925F926F927F928F929F9258
:1040A000AF92BF92CF92DF92EF92FF920F931F9346
:1040B000DF93CF9300D000D0CDB7DEB74A013901EE
:1040C00025E33AEF4EE85CE30E94E12A8B01282EBB
:1040D000E92E712F0E942A295B016C01602F712F3C
:1040E000822D9E2D0E94442B69837A838B839C832F
:1040F000B401882777FD8095982F0E94C8297B01FD
:104100008C01B301882777FD8095982F0E94C829DC
:104110001B012C01A60195010E94E12A3B014C01E3
:10412000C801B70129813A814B815C810E94E12A53
:104130009B01AC01C401B3010E9460280E94952933
:104140003B018091410290914202680E791EC801A4
:10415000B701A60195010E94E12A7B018C01C201F1
:10416000B10129813A814B815C810E94E12A9B0146
:10417000AC01C801B7010E945F280E949529CB01BC
:1041800020913F0230914002820F931FBC01C30176
:104190000F900F900F900F90CF91DF911F910F9183
:1041A000FF90EF90DF90CF90BF90AF909F908F9057
:1041B0007F906F905F904F903F902F9008951F9346
:1041C000CF93DF93EB0197FF05C0909581959F4FAB
:1041D0003FEF01C031E0D7FF05C0D095C195DF4F5B
:1041E0001FEF01C011E023E0883E920751F021E06B
:1041F000813992074CF4009761F0823391053CF0CD
:1042000008C080E090E005C080E991E002C082E350
:1042100090E023E0C83ED20751F021E0C139D20737
:104220004CF4209761F0C233D1053CF008C0C0E0E7
:10423000D0E005C0C0E9D1E002C0C2E3D0E02091E7
:10424000EA03313041F42E7F2093EA039093E50195
:104250008093E4010BC021602093EA0322273327D7
:10426000281B390B3093E5012093E4018739910530
:10427000ACF4009731F19C01B901882777FD809556
:10428000982F0E94C8292FE135E843EA5EE30E9497
:10429000E12A0E9495296E5C7F4F15C09C01B901EF
:1042A000882777FD8095982F0E94C82920E937EA52
:1042B00044E95FE30E94E12A0E9495296E51704013
:1042C00002C060E070E07093580260935702209142
:1042D000EA03113041F42D7F2093EA03D093E701E4
:1042E000C093E6010BC022602093EA038827992738
:1042F0008C1B9D0B9093E7018093E601C739D10594
:10430000A4F4209721F1BE01882777FD8095982F8E
:104310000E94C8292FE135E843EA5EE30E94E12AC2
:104320000E9495296E5C7F4F14C0BE01882777FDDF
:104330008095982F0E94C82920E937EA44E95FE375
:104340000E94E12A0E9495296E51704002C060E0EF
:1043500070E0709356026093550280E00E94001056
:1043600081E00E940010DF91CF911F9108950E947B
:10437000CF0F0895813051F4662341F0673018F073
:104380006F3018F403C067E001C06EE00E9428108F
:104390000895CF93DF93EC01009769F0198218829A
:1043A0008C81882341F48A819B81009721F00E94AF
:1043B0007A2C1B821A82DF91CF910895CF93DF93DD
:1043C000C8EED1E0198218828C81882341F48A8159
:1043D0009B81009721F00E947A2C1B821A822996D9
:1043E00082E0CC30D80771F7DF91CF910895E8EEE5
:1043F000F1E0208131812817390739F0399622E020
:10440000EC30F207B1F7E0E0F0E0CF010895BF92A1
:10441000CF92DF92EF92FF920F931F93CF93DF9390
:10442000EC018B01B42E009709F459C0413408F017
:1044300056C02B2D30E069010894C108D1082C2109
:104440003D212115310509F04AC00E94F721FC01E8
:10445000009739F0208530E02C153D05E1F10E94F0
:10446000C92138EEE32E31E0F32EF70180819181EE
:10447000009719F5D183C0838B2D8150808701155A
:10448000110569F48B2D90E0880F991F880F991FF3
:104490000E94E02BF70182839383148205C0F70109
:1044A0001383028381E08483F701828193810097E3
:1044B00071F4C7010E94C92112C089E090E0E80EA2
:1044C000F91E9CE0E91692E0F90679F608C0E114BD
:1044D000F10429F0F70115821682178202C0E0E08C
:1044E000F0E0CF01DF91CF911F910F91FF90EF90FE
:1044F000DF90CF90BF900895885E914069E070E0B2
:104500000E94972B862F0895843060F490E09C01E0
:1045100043E0220F331F4A95E1F7280F391F285136
:104520003E4F02C020E030E0C9010895FC01009731
:1045300019F01582168217820895FC010097F1F098
:10454000828193810097D1F0308527813217C0F0A6
:10455000268121502323A22FB0E0AA0FBB1FAA0F50
:10456000BB1FA80FB91F4D935D936D937C93139759
:10457000268387818F5F878381E0089580E0089597
:1045800080E00895FC01009701F1828193810097FA
:10459000E1F0378120852317D0F02581A22FB0E0EC
:1045A000AA0FBB1FAA0FBB1FA80FB91F4D935D9386
:1045B0006D937C931397822F8F5F908589238583DA
:1045C00087818F5F878381E0089580E0089580E090
:1045D0000895FC010097F9F087818823F1F081505C
:1045E00087838581815090858923858390E0880F1A
:1045F000991F880F991F0280F381E02DE80FF91FA2
:1046000080819181A281B381FB0180839183A28308
:10461000B38381E0089580E0089580E00895FC016F
:10462000009701F187818823F9F081508783868183
:1046300090E0880F991F880F991FA281B381A80F5E
:10464000B91F2D913D914D915C91DB012D933D93CF
:104650004D935C93139786818F5F90858923868322
:1046600081E0089580E0089580E00895FC010097BE
:10467000E1F087814817D8F48581841B90858923D0
:1046800090E0880F991F880F991F0280F381E02D19
:10469000E80FF91F80819181A281B381FB018083A2
:1046A0009183A283B38381E0089580E0089580E040
:1046B0000895F999FECF92BD81BDF89A80B508950D
:1046C0008F929F92AF92BF92CF92DF92EF92FF9222
:1046D0000F931F93DF93CF9300D0CDB7DEB76C015C
:1046E0008B014A0179018DEA96E00E945923282F17
:1046F00030E022503E4F2E153F0524F0F594E7940C
:10470000E81A02C0EE24EA94C4010C960E945923D0
:104710008E1538F08EE090E0880E991E3EE027E07E
:1047200002C037E020E0AA240FC0C40129833A83E5
:104730000E945923A82E29813A818E1540F0E2E08B
:10474000F0E08E0E9F1E2F5F231778F305C0222303
:1047500019F484E690E030C0C40102970E94592306
:10476000F82EC40101970E945923B82EC401019666
:104770000E945923FA14F1F0282F30E02B19310947
:10478000922F6F2D6A1980E070E00E94972BFE181F
:104790002F2D30E0629FC001639F900D729F900D9E
:1047A00011248B2D890F8A3828F495E0899FC00148
:1047B000112402C083EE93E0F60191838083F80117
:1047C0008081809580830F900F90CF91DF911F9112
:1047D0000F91FF90EF90DF90CF90BF90AF909F90A0
:1047E0008F900895FB01DC0111963C932E938081FC
:1047F0008095808308952F923F924F925F926F929F
:104800007F928F929F92AF92BF92CF92DF92EF9260
:10481000FF920F931F93DF93CF9300D000D0CDB7BB
:10482000DEB78FB7F89420901D0230901E022091C1
:104830001F02309120023A8329838FBF8091510259
:1048400090915202B101681B790B80914F029091B7
:1048500050028901081B190B6115710521F401151E
:10486000110509F492C130925202209251024981FD
:104870005A815093500240934F02882777FD8095CC
:10488000982F0E94C82926EE30E04EE350E40E94A3
:10489000E12A6B837C83D82EB92EB801882777FD57
:1048A0008095982F0E94C82926EE30E04EE350E410
:1048B0000E94E12AC62EA72E982E892E9401832FBE
:1048C000922FBB81AC812B2F3A2F4D2D5B2D0E9457
:1048D0005F2826E636E642EC52E40E942D298B0141
:1048E000F82EE92E9701712F832F922F20E030E0D0
:1048F000A9010E942629882309F4D4C09701602FBA
:10490000712F832F922F20E030E040E05FE30E9480
:10491000E12A0E94442B2B013C015B814C81652FD5
:10492000742F8D2D9B2DF4012C2D3A2D4F2F5E2FA2
:104930000E946028A30192010E94E12AF701202F22
:10494000312F4F2F5E2F0E942D29C62E972EA82E75
:10495000D92E9701602F712F832F922F25E33AEFE5
:104960004EE85CE30E942D29209121023091220221
:1049700040912302509124020E946028F62E172FA6
:10498000E82E092F862F912FAE2DB02F8093210274
:1049900090932202A0932302B09324026F2D712FD3
:1049A0008E2D902F20E030E044EB53E40E94D62A75
:1049B00087FD0BC06F2D712F8E2D902F20E030E0E2
:1049C00044EB53E40E945F2815C06F2D712F8E2D8C
:1049D000902F20E030E0A9010E94262987FF12C015
:1049E0006F2D712F8E2D902F20E030E044EB53E49B
:1049F0000E94602860932102709322028093230218
:104A000090932402E0902102F09022020091230270
:104A100010912402E0923302F092340200933502A6
:104A200010933602C801B7010E949529709338028D
:104A300060933702C801B70120E030E040E251E462
:104A40000E94E12A0E94952970933A0260933902EC
:104A5000C801B70125E33AEF4EE85CE30E94E12A82
:104A60007B018C01762F272F3F2D402F512FCA011C
:104A7000B9010E94442B60933B0270933C028093E7
:104A80003D0290933E026E2D7F2D802F912F0E942C
:104A90002A296093290170932A0180932B01909316
:104AA0002C0104C0CB809C80AD2CDB2C6C2D792D8F
:104AB0008A2D9D2D20E030E0A9010E94262988231F
:104AC00009F463C06C2D792D8A2D9D2D209129012B
:104AD00030912A0140912B0150912C010E94E12A32
:104AE0002091250230912602409127025091280200
:104AF0000E946028F62E072F182FE92E862F902F60
:104B0000A12FBE2D8093250290932602A093270209
:104B1000B09328026C2D792D8A2D9D2D20913B027A
:104B200030913C0240913D0250913E020E94E12AA8
:104B30002091290230912A0240912B0250912C029F
:104B40000E9460286B015C01762F272F3D2D4A2D96
:104B50005B2D2093290230932A0240932B0250931D
:104B60002C026F2D702F812F9E2D0E9495297093FE
:104B7000400260933F026C2D7D2D8A2D9B2D0E945B
:104B8000952970934202609341022FB7F894809167
:104B9000EB039091EC032FBF20915302309154020C
:104BA000FC01E21BF30B9F01FBE029313F0708F4F6
:104BB0005DC0909354028093530280914B02909178
:104BC0004C0209811A81081B190B80914D029091AA
:104BD0004E02B101681B790B882777FD8095982FCD
:104BE0000E94C82925EE30E04EEB50E40E94E12AF5
:104BF0000E9495296B017C0170932E0260932D0217
:104C0000B801882777FD8095982F0E94C82925EE46
:104C100030E04EEB50E40E94E12A0E9495298B017E
:104C20009C01CB011093300200932F028C0D9D1D2F
:104C300062E070E00E94AB2B60933102709332020D
:104C400030924E0220924D0249815A8150934C027B
:104C500040934B02D0924402C0924302109346020A
:104C60000093450260934702709348020F900F90A3
:104C70000F900F90CF91DF911F910F91FF90EF90C8
:104C8000DF90CF90BF90AF909F908F907F906F906C
:104C90005F904F903F902F90089580E090E0DC016E
:104CA0008093210290932202A0932302B0932402C6
:104CB0008093250290932602A0932702B0932802A6
:104CC0008093290290932A02A0932B02B0932C0286
:104CD0008093330290933402A0933502B09336024E
:104CE000109238021092370210923A021092390252
:104CF0001092400210923F02109242021092410222
:104D000008952091230130912401821793073CF4E8
:104D100040912501509126018417950754F0809108
:104D20002501909126012817390731F0281B390BEE
:104D300005C020E030E002C021E030E0C901089564
:104D400080911A02882321F080E10E94320A03C078
:104D500080E10E942B0A80911C02882321F088E0C8
:104D60000E94320A03C088E00E942B0A809123012E
:104D70009091240121E0843F920724F482E00E9474
:104D8000320A03C082E00E942B0A80912501909193
:104D9000260121E0843F920724F481E00E94320A38
:104DA00003C081E00E942B0A80914803813019F4EE
:104DB00080E40E94320A089581E090E061E070E0B2
:104DC0000E948B088DB79EB70A970FB6F8949EBFC6
:104DD0000FBE8DBFEDB7FEB731968DE793E0ADB74F
:104DE000BEB712969C938E93119780910C0290916E
:104DF0000D029383828380910E0290910F0295831E
:104E000084838091230190912401978386838091EC
:104E1000250190912601918780870E94D008EDB7E7
:104E2000FEB73A960FB6F894FEBF0FBEEDBF82E014
:104E300090E061E070E00E948B088DB79EB70A9702
:104E40000FB6F8949EBF0FBE8DBFEDB7FEB731967B
:104E500084E693E0ADB7BEB712969C938E931197FC
:104E600080911202909113029383828380911402A5
:104E70009091150295838483809116029091170278
:104E80009783868380911802909119029187808779
:104E90000E94D008EDB7FEB73A960FB6F894FEBF61
:104EA0000FBEEDBF83E090E061E070E00E948B08F0
:104EB0008DB79EB70C970FB6F8949EBF0FBE8DBFEF
:104EC000EDB7FEB731968AE493E0ADB7BEB7129660
:104ED0009C938E93119780911D0290911E022AE05F
:104EE00030E0B9010E94AB2B9383828380911F0233
:104EF00090912002B9010E94AB2B9583848380910D
:104F00001C028683178280911B0280871186809104
:104F10001A02828713860E94D008EDB7FEB73C962E
:104F20000FB6F894FEBF0FBEEDBF84E090E061E0E5
:104F300070E00E948B0880916D0190916E01009746
:104F400021F090934A028093490200D000D083E47C
:104F500093E0ADB7BEB712969C938E931197809154
:104F6000490290914A0214969C938E9313970E9443
:104F7000D0080F900F900F900F90089581E090E06F
:104F800061E070E00E948B0800D000D000D0EDB747
:104F9000FEB7319681E393E0ADB7BEB712969C930E
:104FA0008E93119780913702909138029383828378
:104FB0008091390290913A026AE070E00E94AB2B36
:104FC000958384830E94D008EDB7FEB736960FB65E
:104FD000F894FEBF0FBEEDBF82E090E061E070E0AC
:104FE0000E948B0800D000D000D0EDB7FEB73196FC
:104FF00080E293E0ADB7BEB712969C938E93119763
:1050000080913F029091400293838283809141027C
:1050100090914202958384830E94D008EDB7FEB739
:1050200036960FB6F894FEBF0FBEEDBF83E090E05A
:1050300061E070E00E948B0800D000D000D0EDB796
:10504000FEB731968CE093E0ADB7BEB712969C9355
:105050008E931197809143029091440293838283AF
:105060008091450290914602958384830E94D008E6
:10507000EDB7FEB736960FB6F894FEBF0FBEEDBF84
:1050800084E090E061E070E00E948B0800D000D0E6
:1050900083E093E0ADB7BEB712969C938E931197C1
:1050A000809147029091480214969C938E93139797
:1050B0000E94D0080F900F900F900F9008955058B5
:1050C000BB27AA270ED027C2F0D130F0F5D120F0AF
:1050D00031F49F3F11F41EF4C0C10EF4E095E7FBDC
:1050E000B6C1E92F3AD280F3BA1762077307840773
:1050F000950718F071F49EF552C20EF4E0950B2E50
:10510000BA2FA02D0B01B90190010C01CA01A00119
:105110001124FF27591B99F0593F50F4503E68F174
:105120001A16F040A22F232F342F4427585FF3CFB5
:10513000469537952795A795F0405395C9F77EF486
:105140001F16BA0B620B730B840BBAF09150A1F0CF
:10515000FF0FBB1F661F771F881FC2F70EC0BA0F55
:10516000621F731F841F48F4879577956795B795DD
:10517000F7959E3F08F0B3CF9395880F08F09927D5
:10518000EE0F97958795089590D158F080E891E0BB
:1051900009F49EEF91D128F040E851E059F45EEF18
:1051A00009C05BC1FCC1E92FE078D7D168F3092EB3
:1051B000052AC1F3261737074807590738F00E2E7E
:1051C00007F8E02569F0E025E0640AC0EF6307F81E
:1051D000009407FADB01B9019D01DC01CA01AD01B0
:1051E000EF934AD098D10AD05F91552331F02BED3F
:1051F0003FE049E450FD49EC63CF0895DF93DD279C
:10520000B92FBF7740E85FE31616170648075B071C
:1052100010F4D92FCFD19F938F937F936F933AD26E
:10522000ECE8F0E01DD177D12F913F914F915F9144
:10523000D4D1DD2349F09058A2EA2AED3FE049ECB1
:105240005FE3D0785D274DDFDF9165C1DCD008F4E6
:1052500081E0089539D1E3956FC10CD05CC12CD1A8
:1052600040F023D130F021F45F3F19F0F0C051112C
:1052700097C1F3C072D198F39923C9F35523B1F3C1
:10528000951B550BBB27AA2762177307840738F0B5
:105290009F5F5F4F220F331F441FAA1FA9F333D014
:1052A0000E2E3AF0E0E830D091505040E695001CC8
:1052B000CAF729D0FE2F27D0660F771F881FBB1F84
:1052C000261737074807AB07B0E809F0BB0B802D5E
:1052D000BF01FF2793585F4F2AF09E3F510568F0AA
:1052E000B6C05EC15F3FECF3983EDCF386957795E0
:1052F0006795B795F7959F5FC9F7880F911D9695AC
:10530000879597F90895E1E0660F771F881FBB1F07
:10531000621773078407BA0720F0621B730B840BB4
:10532000BA0BEE1F88F7E095089504D06894B11188
:1053300037C108951AD188F09F5790F0B92F992757
:10534000B751A0F0D1F0660F771F881F991F1AF090
:10535000BA95C9F712C0B13081F021D1B1E00895FA
:105360001EC1672F782F8827B85F39F0B93FCCF37B
:10537000869577956795B395D9F73EF49095809586
:10538000709561957F4F8F4F9F4F0895E89409C0A6
:1053900097FB3EF490958095709561957F4F8F4F68
:1053A0009F4F9923A9F0F92F96E9BB279395F6957E
:1053B000879577956795B795F111F8CFFAF4BB0FFC
:1053C00011F460FF1BC06F5F7F4F8F4F9F4F16C060
:1053D000882311F096E911C0772321F09EE8872FEA
:1053E000762F05C0662371F096E8862F70E060E0A6
:1053F0002AF09A95660F771F881FDAF7880F96951F
:10540000879597F90895990F0008550FAA0BE0E8C2
:10541000FEEF16161706E807F907C0F01216130676
:10542000E407F50798F0621B730B840B950B39F4B6
:105430000A2661F0232B242B252B21F408950A261C
:1054400009F4A140A6958FEF811D811D089597F95C
:105450009F6780E870E060E008959FEF80EC08951A
:10546000DF93CF931F930F93FF92EF92DF927B0115
:105470008C01689405C0DA2EEF01AFD0FE01E894EC
:10548000A5912591359145915591AEF3EF0129DE16
:10549000FE019701A801DA9479F7DF90EF90FF9071
:1054A0000F911F91CF91DF91089500240A94161651
:1054B000170618060906089500240A941216130602
:1054C000140605060895C9CF50D0E8F3E894E0E04B
:1054D000BB279F57F0F02AED3FE049EC06C0EE0FE6
:1054E000BB0F661F771F881F28F0B23A6207730749
:1054F000840728F0B25A620B730B840BE3959A95DC
:1055000072F7803830F49A95BB0F661F771F881F9B
:10551000D2F79048C4C0092E0394000C11F48823DC
:1055200052F0BB0F40F4BF2B11F460FF04C06F5F5B
:105530007F4F8F4F9F4F0895EF93E0FF06C0A2EA81
:105540002AED3FE049EC5FEBCCDDE5DF0F90039403
:1055500001FC9058E9EBF0E0AEC057FD9058440FC5
:10556000551F59F05F3F71F04795880F97FB991FC2
:1055700061F09F3F79F0879508951216130614067F
:10558000551FF2CF4695F1DF08C01616170618060C
:10559000991FF1CF86957105610508940895E894E7
:1055A000BB2766277727CB0197F908952CDF08F4EE
:1055B0008FEF08959B01AC0160E070E080E89FE30D
:1055C0004CCE0BD0A8CF71DF28F076DF18F09523F2
:1055D00009F03DCF42CF1124E3CFBFDFA0F3959F69
:1055E000D1F3950F50E0551F629FF001729FBB27CA
:1055F000F00DB11D639FAA27F00DB11DAA1F649F76
:105600006627B00DA11D661F829F2227B00DA11D28
:10561000621F739FB00DA11D621F839FA00D611DAE
:10562000221F749F3327A00D611D231F849F600DCF
:10563000211D822F762F6A2F11249F5750408AF008
:10564000E1F088234AF0EE0FFF1FBB1F661F771F94
:10565000881F91505040A9F79E3F510570F0F7CE3A
:105660009FCF5F3FECF3983EDCF386957795679587
:10567000B795F795E7959F5FC1F7FE2B880F911DB2
:105680009695879597F908959F931EDF0F9007FCD5
:10569000EE5F52CF9B01AC0194CF9F3F31F0915010
:1056A00020F4879577956795B795880F911D969506
:1056B000879597F908959F938F937F936F93FF93A7
:1056C000EF939B01AC017DDFEF91FF91C9DE2F913C
:1056D0003F914F915F9175CF629FD001739FF00111
:1056E000829FE00DF11D649FE00DF11D929FF00D72
:1056F000839FF00D749FF00D659FF00D9927729FA9
:10570000B00DE11DF91F639FB00DE11DF91FBD0133
:10571000CF0111240895991B79E004C0991F9617B1
:1057200008F0961B881F7A95C9F780950895AA1BE3
:10573000BB1B51E107C0AA1FBB1FA617B70710F07C
:10574000A61BB70B881F991F5A95A9F780959095AE
:10575000BC01CD01089597FB092E07260AD077FDDD
:1057600004D0E5DF06D000201AF4709561957F4FD4
:105770000895F6F7909581959F4F0895A1E21A2E0E
:10578000AA1BBB1BFD010DC0AA1FBB1FEE1FFF1FE5
:10579000A217B307E407F50720F0A21BB30BE40B35
:1057A000F50B661F771F881F991F1A9469F760957C
:1057B0007095809590959B01AC01BD01CF01089536
:1057C000CF93DF938230910510F482E090E0E09176
:1057D000F103F091F20340E050E020E030E026C019
:1057E0006081718168177907E0F06817790781F4A3
:1057F000828193812115310531F0D90113969C9353
:105800008E9312972BC09093F2038093F10326C0DE
:105810004115510519F06417750718F4AB01E9013A
:10582000DF019F0172816381E72FF62F3097C1F668
:105830004115510501F1481B590B4430510580F4C5
:1058400012968D919C911397209719F09B838A83D0
:1058500004C09093F2038093F103FD01329646C099
:10586000FD01E40FF51F8193919342505040119632
:105870005C934E933BC02091EF033091F0032115D0
:10588000310541F420912F01309130013093F00324
:105890002093EF0320913101309132012115310520
:1058A00041F42DB73EB740912D0150912E01241B9C
:1058B000350BE091EF03F091F003E217F307A0F44A
:1058C0002E1B3F0B2817390778F0AC014E5F5F4F56
:1058D0002417350748F04E0F5F1F5093F003409395
:1058E000EF038193919302C0E0E0F0E0CF01DF91FC
:1058F000CF910895CF93DF93009709F491C0FC01F5
:105900003297138212826091F1037091F203611554
:10591000710581F420813181280F391F8091EF03B7
:105920009091F0038217930799F5F093F003E093B9
:10593000EF0376C0DB0180E090E002C0CD01D90129
:10594000AE17BF0748F412962D913C91139721157D
:105950003105A1F7CD0121C0B383A283EF014991A5
:1059600059919E01240F351FA217B30779F42D9189
:105970003C911197240F351F2E5F3F4F31832083B9
:1059800012962D913C91139733832283009729F42B
:10599000F093F203E093F10343C0DC011396FC9310
:1059A000EE9312974D915D91A40FB51FEA17FB0777
:1059B00069F420813181240F351F2E5F3F4FEC01A8
:1059C00039832883228133813B832A83E0E0F0E01E
:1059D00002C0FB01BC01DB0112968D919C911397D3
:1059E0000097B9F79B012E5F3F4F8D919C911197C6
:1059F000820F931F4091EF035091F003481759070E
:105A000079F4309729F41092F2031092F10302C056
:105A100013821282225030403093F0032093EF0320
:105A2000DF91CF910895FC0188279927E89421916F
:105A30002032E9F3293010F02E30C8F32B3241F038
:105A40002D3239F4689404C00E945E2D820F911D9E
:105A5000219120532A30C0F31EF4909581959F4FD9
:105A60000895FB01DC0102C005900D9241505040A9
:105A7000D8F70895FC010590061621F00020D9F70B
:105A8000C00108953197CF010895FB01DC018D918C
:105A9000059080190110D9F3990B0895FB01DC01E1
:105AA00002C001900D9241505040D8F70895DC019A
:105AB00001C06D9341505040E0F708957AE0979F00
:105AC000902D879F802D910D112408950F931F9382
:105AD000DF93CF93CDB7DEB72E970FB6F894DEBF26
